:020000040800F2
:100000000805002001010008D71D00089B1C0008FE
:10001000D51D0008CD090008591F00080000000088
:10002000000000000000000000000000DB1D0008D0
:10003000CF09000800000000D91D0008DD1D0008E0
:100040001B0100081B0100081B0100081B01000820
:100050001B0100081B0100081B0100081B01000810
:100060001B0100081B0100081B0100081B01000800
:100070001B0100081B0100081B0100081B010008F0
:100080001B0100081B0100081B0100081B010008E0
:100090001B0100081B0100081B0100081B010008D0
:1000A0001B0100081B0100081B0100081B010008C0
:1000B0001B0100081B0100081B0100081B010008B0
:1000C0001B0100081B0100081B0100081B010008A0
:1000D0001B0100081B0100081B0100081B01000890
:1000E0001B0100081B0100081B010008DFF80CD0F1
:1000F00000F092FB00480047252E0008080500206C
:100100000648804706480047FEE7FEE7FEE7FEE7B1
:10011000FEE7FEE7FEE7FEE7FEE7FEE73B1E000820
:10012000ED000008202A04DB203A21FA02F0002129
:10013000704721FA02F3D040C2F1200291400843F7
:1001400019467047D2B201E000F8012B491EFBD2DC
:1001500070470022F6E710B513460A4604461946D2
:10016000FFF7F0FF204610BD80EA010210B502F053
:100170000043400022D04A001FD0010E01EB126163
:10018000C0F35600C2F3560240F4000042F40002ED
:10019000A0FB022000047F39140400D0401C50EA68
:1001A000124001D44000491EC2B20C0604EBD0102C
:1001B000401C4008802A02D003E0002010BD20F03F
:1001C0000100002900DA0020184310BD420005D0CC
:1001D000C0F3C7525242914201DC0020704700EB4D
:1001E000C15070472DE9FE4F804681EA0300C00FE1
:1001F0000C46009021F0004123F00045B8EB0200CE
:10020000A94105D24046214690461C460B4602466F
:1002100023F00040104347D0270DC7F30A00C3F373
:100220000A510290401A019040286BDAC3F3130080
:1002300040F4801B0098924620B10023D2EB030AC1
:1002400063EB0B0B01985946C0F14002504600F099
:10025000D6F906460D4650465946019A00F0DEF999
:1002600010EB08006141002487EA115284EAE77329
:100270001A4340D0009A62B3019A012A4FEA07520A
:1002800015DC001B61EB02014FF0004202EA07524D
:10029000CDE90042001C41F5801132462B4600F0AA
:1002A00015FA03B0BDE8F08F40462146F9E7001B80
:1002B00061EB0201001C41F5801300185B4120181E
:1002C000A2F5001747EB030140EAD570B6196D415E
:1002D00011E06D084FEA360645EAC0754FEA07524D
:1002E000001B61EB0201001C41F5801149084FEA37
:1002F00030000019514132462B4603B0BDE8F04FA3
:1003000000F0D5B90098012240000023D0EB020292
:1003100063EBE073009821464FEAE074B8EB00000D
:1003200061EB0401E9E783F000435BE781F0004102
:1003300058E72DE9FE4F81EA030404F0004421F060
:10034000004100944FF0000B23F0004350EA0104F9
:100350005ED052EA03045BD0C3F30A54C1F30A55DA
:100360002C44A4F2F3340194A0FB0254C1F3130112
:1003700041F48011C3F3130343F4801301FB0244DF
:1003800000FB034E840A970A44EA815447EA8357E4
:10039000A4FB076802958D0A05FB07854FEA932C9D
:1003A00004FB0C542705029D4FEA065847EA16370E
:1003B000B5EB08056EEB070C870E920E47EA811726
:1003C00042EA8312A7FB0201B6EB0B0164EB0004C7
:1003D0002B0D43EA0C335E1844EB1C50DA465146B1
:1003E000E7FB0201C5F313044FEA0B3343EA14534E
:1003F0004FEA0432019C43EA0603A4F10C04029480
:10040000009CCDE900B400F061F903B0BDE8F08FC5
:1004100000200146F9E72DE9F04D81EA030404F0DC
:10042000004B21F0004514464FF0000A23F0004134
:1004300050EA050220D054EA01021DD0C5F30A5744
:100440000246C5F31303C1F31300C1F30A5640F487
:10045000801543F48013A7EB0608101BD64608F25C
:10046000FD3873EB050002D308F1010801E0921892
:100470005B41B8F1000F03DA00200146BDE8F08DC2
:1004800000204FF48011064684460EE0171B73EBE4
:10049000050705D3121B63EB050306434CEA010C69
:1004A00049084FEA300092185B4150EA0107EDD14C
:1004B00052EA030012D082EA040083EA05010843ED
:1004C00005D0101BAB4106D20122002306E000221A
:1004D0004FF0004302E06FF0010253101AEB0600E8
:1004E0004CEB085110EB0A0041EB0B01BDE8F04D5D
:1004F00000F0DDB896230022114600F0AAB80EB530
:1005000040F2334102910021CDE900110A460B4629
:1005100000F0DCF803B000BDC1F30A5210B5C1F31E
:10052000130140F2FF3341F480119A4201DA0020B6
:1005300010BD40F233439A42A2F2334203DC5242EE
:10054000FFF7F0FD10BD904010BD00F0004230F00C
:1005500000400AD0C10D01F56071C0F3160042EAF7
:100560000151C208400711437047002001467047FF
:1005700030B50B46014600202022012409E021FA73
:1005800002F59D4205D303FA02F5491B04FA02F570
:100590002844151EA2F10102F1DC30BD2DE9F05F07
:1005A0000546002092469B468846064681464024E2
:1005B0001BE02846414647462246FFF7B3FD534617
:1005C0005A46C01A914110D311461846224600F0EF
:1005D00016F82D1A67EB01084F462246012000212C
:1005E00000F00DF817EB00094E41201EA4F10104A4
:1005F000DFDC484631462A464346BDE8F09F202AC4
:1006000004DB203A00FA02F1002070479140C2F169
:10061000200320FA03F3194390407047202A06DB99
:10062000CB17203A41FA02F043EAE07306E041FAC0
:1006300002F3D040C2F120029140084319467047AE
:100640000029A8BF7047401C490008BF20F00100E6
:10065000704710B4B0FA80FC00FA0CF050EA0104C4
:1006600004BF10BC704749B1CCF1200421FA04F456
:1006700011FA0CF118BF012121430843A3EB0C012F
:10068000CB1D4FEA00614FEA102042BF002010BC92
:10069000704700EBC35010440029A4BF10BC704742
:1006A000401C490008BF20F0010010BC704710B585
:1006B000141E73F1000408DA401C41F10001921885
:1006C0005B411A4301D120F0010010BD2DE9F04D2E
:1006D00092469B4611B1B1FA81F202E0B0FA80F283
:1006E00020329046FFF78BFF04460F4640EA0A008F
:1006F00041EA0B0153465A46084313D0114653EAC8
:10070000010019D0C8F140025046FFF70BFD054625
:100710000E46504659464246FFF771FF084305D042
:10072000012004E020463946BDE8F08D0020054355
:1007300046EAE0762C4337430A986305E40AA0EBC7
:1007400008000022FD0A44EA47540A3002D500207E
:100750000146E9E7010510196941DDE9084500197D
:100760006941BDE8F04DA2E770B521F000430343B5
:100770000CD0C1F30A550024D5EB040564EB040347
:10078000D617AD1AB34102DB0020014670BD201818
:1007900041EB025170BD0EB5C10F80EAE070084414
:1007A000CA07002140F233438DE80E000A460B468B
:1007B000FFF78CFF03B000BDC1F30A52C1F3130170
:1007C00040F2FF3341F480119A4202DA00200146E0
:1007D000704740F233439A42A2F2334202DC524263
:1007E000FFF7A0BCFFF70BBF30B5041E71F100048A
:1007F00004DB4FF00044404264EB0101141E73F12E
:10080000000405DB1C464FF00043524263EB040337
:10081000994208BF904230BD064C074D06E0E068A3
:1008200040F0010394E8070098471034AC42F6D337
:10083000FFF760FC883B0008A83B00082DE9F04D5D
:1008400000231A461B1A8A4103DB00200146BDE83B
:10085000F08DC1F30A52C1F3130141F480154FF03A
:10086000000BD10702D100186D41521E002704462B
:1008700040F2FF11384601EB620A3E4680460246CE
:1008800000204FF48011FFF74DFCC2197141BB18D5
:1008900046EB0100B4EB030C75EB000C04D3E41A37
:1008A00065EB000517460E46241908F101006D415D
:1008B00080463428E3DDF91946EB0600091BA84100
:1008C00003D24FF0FF32134601E0002213461BEB28
:1008D000070046EB0A51BDE8F04DFFF7E8BE000007
:1008E00030B5041E71F1000404DB4FF000444042B7
:1008F00064EB0101141E73F1000405DB1C464FF08C
:100900000043524263EB04038B4208BF824230BD76
:1009100070B5044600688168C943C9071CD1816865
:1009200021F00101816000F0DDFC05460FE000BF11
:1009300000F0D8FC401B022809D9A06A40F0100042
:10094000A062E06A40F00100E062012070BD206812
:100950008068C043C007EBD0002070BDF8B500260A
:100960000446009600688168C943C90728D0816899
:1009700041F001018160134813490068B0FBF1F0B8
:1009800000E0401E00900028FBD100F0ABFC0546C3
:1009900011E000BF00F0A6FC401B02280BD9A06AA2
:1009A00040F01000A062E06A40F00100E06284F8CC
:1009B00024600120F8BD20688068C043C007E9D1E9
:1009C0000020F8BD2C00002040420F00FEE77047D9
:1009D000F8B500250446009590F82400012808D0B9
:1009E000012084F824002046FFF792FF060002D081
:1009F0004BE00220F8BDA06A20F4885040F00200CD
:100A0000A062022000F0FEFC22490968B1FBF0F070
:100A1000400000E0401E00900028FBD12046FFF778
:100A20009DFF2068816841F00801816000F05AFC58
:100A3000074604E000F056FCC01B0A2811D82068C5
:100A400080680007F6D42068816841F00401816065
:100A500000F048FC07460EE000F044FCC01B0A28EA
:100A600009D9A06A20F0020040F01000A06284F8CA
:100A700024500120F8BD206880684007ECD4A06AAB
:100A800020F0020040F00100A06284F824503046BB
:100A9000F8BD00002C000020F8B50022009290F86C
:100AA000244083681646012C1CD0012480F8244081
:100AB000D3B14D680B691F249D4226D81F055B1BCF
:100AC000C3F103030D6803EB83039D40A7F5801773
:100AD0002F439C40036844F440159C6BAC43274370
:100AE0009F631EE00220F8BD4B68012B05D0826A8F
:100AF00042F020028262012213E003689C6B0D68C1
:100B00006FF3150444EAC5340AE05B1BC3F1030329
:100B100003EB83039C40036844F440159C6BAC4397
:100B20009C6303689C68E443E40706D09C6847F232
:100B30000105AC438D692C439C604B7D012B08D192
:100B40008B69B3F5E04F08D0826A42F020028262DE
:100B500001220B7D012B06D00CE003685C6844F495
:100B600080645C60F5E74B7DA3B1826A42F02002AD
:100B7000826201220B68072405680A2B10D3EF68F4
:100B80000A3B03EB43039C40A7438C689C402743EC
:100B9000EF600EE003685C6844F480545C60E9E751
:100BA0002F6903EB43039C40A7438C689C40274379
:100BB0002F610B68102B01D0112B04D103689C68A6
:100BC00044F400049C604B68012B10D0022B16D01B
:100BD000032B03681BD01C6ACD686FF30B042C43F6
:100BE0001C620B68102B19D0112B17D037E003684B
:100BF0005C69CD686FF30B042C435C61F1E703681B
:100C00009C69CD686FF30B042C439C61E9E7DC69B8
:100C1000CD686FF30B042C43DC61E2E7124C0368F0
:100C2000A34217D19C68240219D49C6844F40004A0
:100C30009C600968102912D10C490D4B0968B1FB61
:100C4000F3F101EB8101490000E0491E0091002908
:100C5000FBD104E0816A41F020018162012280F829
:100C600024601046F8BD0000002401402C00002044
:100C700040420F00F8B50024009490F82420254647
:100C8000012A12D0012280F824204A681F23072A53
:100C90000DD20668776B521E02EB820293409F438F
:100CA0000B6893401F43776319E00220F8BD066884
:100CB0000D2A0AD2376BD21F02EB820293409F4368
:100CC0000B6893401F43376309E0F76A0D3A02EB64
:100CD000820293409F430B6893401F43F7620A6868
:100CE000072306680A2A0AD3F7680A3A02EB420287
:100CF00093409F438B6893401F43F76008E0376938
:100D000002EB420293409F438B6893401F4337613D
:100D10000A68102A01D0112A20D1124B02689A4287
:100D200017D193681B0219D4936843F400039360AE
:100D30000968102912D10C490C4A0968B1FBF2F17B
:100D400001EB8101490000E0491E00910029FBD11F
:100D500004E0816A41F020018162012480F824507E
:100D60002046F8BD002401402C00002040420F0026
:100D7000806A70470068C06C704700002DE9F04140
:100D80004FF0000704003D467ED0A06A002628B937
:100D9000E66284F82460204600F07EF82046FFF7E3
:100DA000B7FDA16AC90600D420B1A06A40F01000C6
:100DB000A06269E0A16A21F4885141F00201A162B8
:100DC0006268E169237B0A4347EA43010A43A16859
:100DD0004FF48077B94209D0012907D05FF00001B4
:100DE00094F814C0BCF1010F02D00AE03946F7E7CD
:100DF000F3B1A36A43F02003A362E36A43F0010363
:100E0000E3622368D3F804C02CF4694C4CEA010C6B
:100E1000C3F804C021688B68DFF870C003EA0C03D4
:100E200013438B60A168B9420BD0012909D00CE0B3
:100E3000DFF85CC0A3690CEB43330B4343F4006160
:100E4000DFE7218A0D05A5F580152168CB6A23F41B
:100E500070032B43CB62216889680E4B1940914285
:100E600008D1E662A16A21F0020141F00101A1620C
:100E7000BDE8F081A06A20F0020040F01000A062FE
:100E8000E06A40F00100E0620120F1E7FDF7E1FFD8
:100E900000E0FFFFFE0E1FFF00B585B000210091AE
:100EA00001910291039100680E49884218D10E48C1
:100EB000816941F400718161816901F400710491DB
:100EC000816941F0040181618069694600F0040094
:100ED00004900120009003200190044800F012F9D2
:100EE00005B000BD00240140001002400008014090
:100EF0002DE9F84300260D460446009600F0F2F96D
:100F0000804620688168C90508D5A06A40F02000A5
:100F1000A06284F824600120BDE8F8834168C90517
:100F200003D4C06A10F4700F26D0022000F06AFAD1
:100F300038490968B1FBF0F72068036936490B426C
:100F40004FEA61014FEAA1121BD1C3684FEA611C4D
:100F500013EA0C0F15D103690B4221D1C06810426E
:100F60001ED114201FE0681C06D045B300F0BAF96A
:100F7000A0EB0800A84222D8206800688007F2D5BC
:100F80002AE003690B4202D1C168114206D002690E
:100F900022490A4206D1C068084203D1542002E027
:100FA000292000E0FC204743009813E0681C0ED085
:100FB0002DB100F097F9A0EB0800A84207D9A06A6C
:100FC00040F00400A06284F824600320A4E70098A5
:100FD000401C0090B842E9D321686FF0120008600D
:100FE000A06A40F40070A06220688068C0F34240AC
:100FF00007280CD1207B50B9A06A20F48070A06231
:10100000A06AC00403D4A06A40F00100A0620020DE
:1010100082E700002C0000202449922449922400F9
:1010200070B5044690F8240001280DD0012084F802
:1010300024002046FFF792FC02004FF0000005D08C
:1010400084F82400104670BD022070BDA16A40F2F1
:101050000123994341F48071A1621F4D23681F4908
:10106000AB4218D10E6816F4702F14D0A66A46F45D
:101070008016A6620E68760505D5A66A26F4005687
:1010800046F48056A662A66AF6040AD5E66A26F0F9
:101090000606E66206E0A66A26F48016A6625E6888
:1010A000E9E7E06284F824006FF00200186020682D
:1010B0008368C3F34243072B05D1A84208D10968CE
:1010C00011F4702F04D0816841F480118160B9E778
:1010D000816841F4A001F9E700280140042401409F
:1010E00070B5044600F0FEF80546601C02D00448C6
:1010F0000078044400F0F6F8401BA042FAD370BD1B
:10110000200000202DE9F84FDFF8B891002409F104
:10111000040A0AF1040B23460F270BF1040EC9E061
:101120000125A5402A40AA427DD1674ED1F804C0CE
:10113000ACEB0608B44532D014DCBCF1030F3AD056
:1011400009DCBCF1000F2AD0BCF1010F1CD0BCF1AE
:10115000020F31D11DE0BCF1110F17D0BCF1120FFD
:101160002AD119E0B8F5881F19D006DCB8F5803F00
:1011700015D0B8F5801F1FD111E0B8F5001F0ED0B3
:10118000B8F5041F18D10AE0CB6815E0CB681B1D29
:1011900012E0CB6808330FE0CB680C330CE08B68AF
:1011A0002BB1012B4FF0080303D0456104E0042369
:1011B00002E0056100E00023FF2A01D8064601E0B5
:1011C00000F104064FEA840501D9A5F12005D6F8FF
:1011D000008007FA05FC28EA0C0803FA05F548EA3E
:1011E0000508C6F800804D68ED0062D5374DAE6940
:1011F00046F00106AE61AD6924F0030605F0010575
:101200000095334D06EB050CDCF80850A607360FA9
:1012100007FA06F825EA0805DFF8B880404503D14B
:101220004FF0000817E044E0DFF8AC80404502D101
:101230004FF001080FE0DFF8A480404502D14FF0E5
:10124000020808E0DFF89880404502D14FF003081B
:1012500001E04FF0040808FA06F848EA0508CCF85F
:1012600008804D68D9F80060ED034D4601D516435E
:1012700000E096432E604D68DAF80060AD035546F5
:1012800001D5164300E096432E604D68DBF8006000
:10129000ED025D4601D5164300E096432E604D6891
:1012A000DEF80060AD02754601D5164300E09643B6
:1012B0002E60641C0D682A46E5407FF431AFBDE81E
:1012C000F88F0000000401400000111000100240DF
:1012D0000000014000080140000C014000100140E6
:1012E0000014014001488068704700002000002081
:1012F0000248816802781144816070472000002014
:10130000074810B5016841F010010160032000F0AA
:1013100067F8002000F006F800F024F8002010BD67
:101320000020024070B50D4D04464FF47A712878C4
:10133000B1FBF0F00A490968B1FBF0F000F0B8FB2E
:1013400048B9102C07D200222146501E00F028F880
:1013500000206C6070BD012070BD000020000020E6
:101360002C0000200C4808B5816941F00101816121
:10137000816901F001010091C16941F08051C161B1
:10138000C06900F0805000900448416821F0E0619D
:1013900041F00071416008BD0010024000000140B2
:1013A000F0B40E4B1B680C46C3F30223C3F10705D0
:1013B000042D00D90425191D072901D2002300E0BE
:1013C000DB1E012606FA05F1491E214099409E4088
:1013D000761E16403143F0BC00F0F8BD0CED00E085
:1013E000064900F0070208684FF6FF03184040EA7C
:1013F0000220034A10430860704700000CED00E033
:101400000000FA0510B529A401461DCC86B08DE870
:101410001D002AA02A4C006804900020012923D036
:1014200002293AD010291DD161682268D20119D54C
:10143000C1F38342C9031DF8020009D5616804AAFB
:10144000C1F34041515C1F4AB2FBF1F1484301E056
:101450001D4948436168490204D440005FF003011C
:10146000B0FBF1F006B010BD226AC2F301210129E0
:1014700003D1920701D5C803F4E7022905D1626AB6
:10148000920702D549F64040ECE70329EAD12168EA
:101490008903E7D54FF22440E4E700F033F96168AF
:1014A000C1F38131491C4900DAE700000203040559
:1014B000060708090A0B0C0D0E0F101001020000A0
:1014C0000010024000127A0000093D002DE9F843A7
:1014D00005460078354CC00754D0E0690026C000AE
:1014E00008D4E06940F08050E061E069012600F036
:1014F000805000902E480168C90512D401688046CA
:1015000041F480710160FFF7EDFE074605E000BF82
:10151000FFF7E8FEC01B642823D8D8F80000C005F8
:10152000F6D5206A10F4407021D0A98801F44071EA
:1015300081421CD0206A1F49012220F440700A60B9
:1015400000220A602062C00711D0FFF7CBFE0746D9
:1015500041F2883808E000BFFFF7C4FEC11B4145D7
:1015600002D90320BDE8F883206A8007F4D5206AF9
:10157000696820F44070084320621EB1E06920F0E1
:101580008050E0612878800705D56068A96820F45C
:101590004040084360602878C00605D56068E96867
:1015A00020F48000084360600020DBE70010024068
:1015B00000700040400442422DE9F0470F4605000C
:1015C00061D0434E306800F00700B84209D230685D
:1015D00020F0070038433060306800F00700B84260
:1015E00051D128683B4C810712D5400703D560686C
:1015F00040F4E06060602878000703D5606840F43C
:10160000605060606068A96820F0F0000843606086
:101610002878C00728D06868012810D021680228DF
:1016200010D0890700292EDA616821F003010143F7
:101630006160FFF757FE804641F288390DE021686E
:101640008903EFE78901EDE7FFF74CFEA0EB080106
:10165000494502D90320BDE8F0876068696800F059
:101660000C00B0EB810FEFD1306800F00700B842FA
:101670000BD9306820F0070038433060306800F044
:101680000700B84201D00120E5E72878400705D5DA
:101690006068E96820F4E06008436060287800072B
:1016A00006D56068296920F4605040EAC100606096
:1016B00000F038F86168084AC1F30311515CC84072
:1016C0000649086006480068FFF72CFE0020C2E7C4
:1016D0000020024000100240A43A00082C00002024
:1016E000240000200448054900684968044AC1F301
:1016F0000221515CC84070472C00002000100240BD
:10170000B43A00080448054900684968044AC1F32E
:10171000C221515CC84070472C00002000100240DC
:10172000B43A000812A185B00FC98DE80F0014A0CB
:10173000144A006804905168134801F00C03042B0C
:1017400010D0082B0ED1C1F38343C9031DF8030049
:101750000AD5516804AAC1F34041515C0A4A50437A
:10176000B0FBF1F005B0704708494843FAE70000C4
:1017700002030405060708090A0B0C0D0E0F1010D2
:10178000010200000010024000127A0000093D0032
:101790002DE9F84F040070D02078C04DC00749D023
:1017A0006868C0F38100012807D06868C0F3810031
:1017B000022809D16868C00306D52868800339D596
:1017C00060680028E7D035E06068B0F5803F0BD056
:1017D00010B1B0F5A02F11D0286820F48030286017
:1017E000286820F4802002E0286840F480302860D7
:1017F000606890B1FFF776FD06460AE0286840F47D
:1018000080202860F0E700BFFFF76CFD801B642894
:1018100073D828688003F7D50CE0FFF763FD064610
:1018200005E000BFFFF75EFD801B6428F0D8286844
:101830008003F7D420789A4E80074FF001094FF0CB
:10184000000839D5686810F00C0F07D06868C0F33D
:101850008100022809D16868C00306D4286880077F
:1018600014D52069012808D110E02069B0B1C6F86C
:101870000090FFF737FD074605E00AE1FFF732FD6C
:10188000C01B0228C4D828688007F7D5286861697A
:1018900020F0F80040EAC10028600DE0C6F80080A2
:1018A000FFF720FD074604E0FFF71CFDC01B0228E0
:1018B00023D828688007F7D4207800072CD57948EA
:1018C000A169D9B1C0F80090FFF70CFD074604E00C
:1018D000FFF708FDC01B02280FD8686A8007F7D5FC
:1018E00071484FF4FA510068B0FBF1F0009000BF6E
:1018F0000098411E0091FAD20EE080E0C0F800800E
:10190000FFF7F0FC074604E0FFF7ECFCC01B0228E1
:1019100075D8686A8007F7D42078400760D5E869F1
:101920000027C00008D4E86940F08050E861E86909
:10193000012700F0805000905C480168C90513D46D
:101940000168834641F480710160FFF7CBFC824659
:1019500006E000BFFFF7C6FCA0EB0A0064284ED8E3
:10196000DBF80000C005F5D5E06801280AD008B111
:10197000052813D0286A20F001002862286A20F088
:10198000040002E0286A40F001002862E06841F2A9
:10199000883B98B1FFF7A6FC82460BE0286A40F02E
:1019A00004002862EEE700BFFFF79CFCA0EB0A01F1
:1019B00059455AD8286A8007F6D50CE0FFF792FC03
:1019C000824605E0FFF78EFCA0EB0A0159454CD892
:1019D000286A8007F6D41FB1E86920F08050E861DA
:1019E000E06988B36968C1F38101022944D0022803
:1019F000C6F8608004D0FFF775FC044638E034E098
:101A0000FFF770FC074604E0FFF76CFCC01B0228E0
:101A10002BD828688001F7D4206AB0F5803F05D123
:101A20006868A16820F4003008436860D4E90801C0
:101A30000843696821F4741108436860C6F860902F
:101A4000FFF750FC044606E025E000BFFFF74AFC24
:101A5000001B022809D828688001F7D51BE000BFC9
:101A6000FFF740FC001B022802D90320BDE8F88FD5
:101A700028688001F4D40EE00128F7D06868226A53
:101A800000F48031914204D1616A00F47010884200
:101A900001D00120EAE70020E8E700000010024042
:101AA00000004242800442422C00002000700040AE
:101AB00010B5401EB0F1807F01D3012010BD4FF062
:101AC000E02460610F21601700F080FA0020A0611F
:101AD00007202061002010BD70B5040004D094F8E8
:101AE0003900002510B106E0012070BD84F838509F
:101AF000204600F023F8242084F839002068C168CB
:101B000021F40051C160204600F098F92068016975
:101B100021F4904101612068416921F02A0141616D
:101B20002068C16841F40051C160E563202084F859
:101B3000390084F83A00002070BD000070B586B00E
:101B400000240094019402940394234E03682349D3
:101B500002200322224DB34219D18B6943F4804302
:101B60008B618B6903F4804304938B6943F0040316
:101B70008B618969039201F0040104910102CDE9AE
:101B8000001069462846FFF7BDFA28151BE0154EE0
:101B9000B3421FD1CB6943F40033CB61CB6903F46B
:101BA000003304938B6943F004038B6189690392CA
:101BB00001F0040104910421CDE900106946284692
:101BC000FFF7A0FA0820CDE90004694628460294F0
:101BD000FFF798FA06B070BD0038014000100240CF
:101BE00000080140004400402DE9F843044690F805
:101BF00039001F4616460D4620284CD1C5B1BEB14E
:101C000094F83800012846D0012084F838004FF0BD
:101C10000008C4F83C80212084F83900FFF762FBFB
:101C2000A6848146E684A068B0F5805F03D004E016
:101C30000120BDE8F883206928B12E465FF0000539
:101C400084F838800EE00026FAE78021204600F074
:101C500051F9A0B9AEB116F8010B21684860E08CCB
:101C6000401EE084E08C4B464FF0000200970028B5
:101C7000EBD14FF04001204600F03CF930B1032099
:101C8000D7E735F8020BC0F30800E6E7202084F818
:101C900039000020CDE70220CBE7FEE72DE9F04137
:101CA000002480462546274F2AE02748FFF7B8F949
:101CB00032212548FFF71CF92348FFF759F8800522
:101CC00019D52148FFF756F80004000C388036D0AB
:101CD000FEF710FC1D49FEF747FA6FF00B01FEF707
:101CE00075FAFEF732FCC7E9020122462B46FEF7E1
:101CF00079FA04460D460A20FFF7F2F9761CF6B28F
:101D0000322ED2D30022124B20462946FEF783FB07
:101D100002460B4600200F49FEF77DFB00220E4BCA
:101D2000FEF701FB00220D4BFEF703FB0C4A0D4BA7
:101D3000FEF771FBC8E900010020BDE8F081012039
:101D4000FBE7000000000020380000203333534040
:101D500000004940000014400000F03F00408F4068
:101D6000CDCCCCCCCCCC0C4030B58BB0002407947F
:101D700008941C2168460994FEF7EBF914481349AE
:101D80000125846001600573047505614FF46021CD
:101D90004460C161FEF7F2FFCDE9074507A90C4891
:101DA0000994FEF767FFCDE900454FF4E040069047
:101DB0008DF81540049502948DF814406946044846
:101DC0000394FEF769FE0BB030BD00000024014013
:101DD00038000020FEE7704770477047FFF788BA69
:101DE00030B593B028216846FEF7B3F914210AA84C
:101DF000FEF7AFF9002401200F9410941194010410
:101E000012948DE813000490CDE90814022507957B
:101E10006846FFF7BDFC0F20CDE90A056802CDE951
:101E20000C4000210AA80E94FFF7C6FB0FA80F95DF
:101E30001194FFF74BFB13B030BD704770B50446EB
:101E400000680169E26821F4405111430161216990
:101E5000A0680843616908432168CA6841F20C63BD
:101E60009A430243CA6020684169A26921F4407123
:101E7000114341611E492068884202D1FFF742FCAC
:101E800001E0FFF72FFC00EBC00101EB00126068DE
:101E900064218000B2FBF0F3B3FBF1F36FF018069E
:101EA0007343B2FBF0F5B2FBF0F605EB830532238A
:101EB00003EB0515B5FBF1F5B6FBF1F605F0F00502
:101EC00005EB0615B2FBF0F6B2FBF0F0B0FBF1F05B
:101ED0006FF01802504306EB800003EB0010B0FBDC
:101EE000F1F0216800F00F002844886070BD000008
:101EF000003801402DE9F041984617460E46044649
:101F0000069D1DE0681C1BD02DB1FFF7EBF9A0EB7F
:101F10000800A84214D92068C16821F4D071C160BA
:101F20002068416921F001014161202084F83900D5
:101F300084F83A00002084F838000320BDE8F081DE
:101F40002068006836EA000004D00020B842D9D0EA
:101F50000020F3E70120F9E7FEE700000FB4054B8E
:101F600010B503A9044A029800F090F910BC5DF87E
:101F700014FB0000C5290008300000200FB4084BF6
:101F800010B504A902AA039800F080F9044602A93A
:101F9000002000F012FD204610BC5DF814FB00008C
:101FA000BB290008490050EAC12018BF04204A0D8F
:101FB00018BF40F0010040F2FF72B2EB515F08BF62
:101FC00040F00200012808BF052070470907090EEC
:101FD000002804DB00F1E02080F80014704700F0D6
:101FE0000F0000F1E02080F8141D70472DE9F0414A
:101FF0004F1E00EBC7010446D1E9000115461E46FD
:1020000037F006020DD02A463346FEF792F97F1EBE
:1020100004EBC703D3E90023FEF7E4F837F0060228
:10202000F1D1022F25D0042F13D0062F18BFBDE801
:10203000F0812A463346FEF77CF9D4E90A23FEF7FD
:10204000D1F82A463346FEF774F9D4E90823FEF79F
:10205000C9F82A463346FEF76CF9D4E90623FEF7A1
:10206000C1F82A463346FEF764F9D4E90423FEF7A3
:10207000B9F82A463346FEF75CF9D4E90223FEF7A5
:10208000B1F82A463346FEF754F9D4E90023BDE8F7
:10209000F041FEF7A7B800000022134610460149A0
:1020A000FEF7B9B90000F03F0122FEF75DBBFEF775
:1020B00099B80022134610461146FEF7ACB940F21B
:1020C000013200204FF0E041FEF74EBB024A0020F3
:1020D0001107FEF749BB000001FDFFFF02E008C841
:1020E000121F08C1002AFAD170477047002001E092
:1020F00001C1121F002AFBD170470000014908608E
:1021000070470000340000202DE9FF5F82B00021FD
:10211000DDE90430020DDDF840B0034318D044F689
:102120001050A2F2FF3242431514119801281FD01B
:10213000A5EB0B00401C5FEA000A4FF000064E4F73
:10214000DFF83891B046504615D5CAF1000413E0C7
:10215000119801244AA3012801D16FEA0B010298CA
:10216000119AC0E90031C0E9024206B0BDE8F09F13
:10217000CBF10000DFE704460021404A491842EB5A
:102180000450CDE9001012E0E00707D032463B468C
:1021900040464946FEF7CDF88046894632463B46E2
:1021A00010461946FEF7C5F806460F466410002C87
:1021B000EAD1DDE90401DDE90023BAF1000F06DA16
:1021C000FEF7B7F842464B46FEF7B3F805E0FEF7D8
:1021D00022F942464B46FEF71EF904460E460022FF
:1021E000284BFEF701FB03D84FF0FF30014607E014
:1021F0000022254B20463146FDF7F4FFFEF7DCFABE
:10220000102409E0002C0ADB0A220023FEF7C6F99D
:10221000039B30321A55641E50EA0102F2D1641C4D
:10222000039AC4F111031444119A012A03D0012224
:1022300008430DD10AE0084304D000204FF0110BF1
:10224000119072E7A3EB0B056D1E0DE05B4504DDFD
:102250004FF0000205F1010504E003DA4FF000023F
:10226000A5F10105002AECD002981199C0E90231CC
:10227000C0E9004579E70000000014400000F03F8D
:10228000300000000000F0430000E03F2DE9FF4F68
:1022900095B09B468946064600250FE2252877D152
:1022A00000242746F84A0121059400E0044316F86B
:1022B000013F203B01FA03F01042F7D130782A2881
:1022C00011D06FF02F033078A0F13002092A16D810
:1022D000059A44F0020402EB820203EB420210442E
:1022E000761C0590EFE759F8042B0592002A03DAD3
:1022F000504244F40054059044F00204761C3078B7
:102300002E2816D116F8010F44F004042A280DD007
:102310006FF02F023078A0F13003092B09D807EBBA
:10232000870302EB4303C718761CF3E759F8047BD5
:10233000761C30786C280FD006DC4C2817D0682823
:102340000DD06A2814D104E0742810D07A280FD157
:102350000DE044F400140AE044F4801401E044F475
:1023600040147278824202D104F58014761C761CE7
:10237000307866280BD013DC582877D009DC002889
:1023800075D04528F6D04628F4D047281AD19DE1CB
:1023900018E0632835D0642879D0652812D195E1FA
:1023A000702873D008DC6728F1D069286FD06E28B8
:1023B0000DD06F2806D1B5E073282CD0752875D0C4
:1023C000782874D05A46179990476D1C75E1C4F36C
:1023D0000250022809D003280DD0D9F80010042893
:1023E0000DD00D6009F1040967E1D9F80010EA1772
:1023F000C1E90052F6E7D9F800100D80F2E70D7040
:10240000F0E719F8041B8DF8001000208DF801008A
:10241000EA46012003E059F804AB4FF0FF306107B2
:102420004FF0000102D40DE008F101018846B942E5
:102430000FDA8045F8DB1AF808100029F4D108E01B
:1024400008F1010188468142FADB1AF808100029D8
:10245000F6D105985B46A0EB080721463846179A47
:1024600000F094FA284400EB080507E04DE029E16C
:102470000DE01AF8010B5A4617999047B8F1010878
:10248000F7D25B4621463846179A13E142E00A220A
:102490000092C4F302524FF0000A022A08D059F801
:1024A00004CB032A4FEAEC710AD00DE029E02AE0C0
:1024B00009F1070121F00702F2E802C1914609E0A3
:1024C0000FFA8CFC4FEAEC71042A03D14FFA8CFC12
:1024D0004FEAEC71002907DA0A460021DCF1000C12
:1024E00061EB02012D2202E0220504D52B228DF89A
:1024F0000420012203E0E20701D02022F7E7904602
:1025000059E00A2102E010220DE010214FF0000AEC
:1025100000910BE010224FF0000A44F00404082759
:10252000009203E008224FF0000A0092C4F3025226
:10253000022A05D059F804CB0021032A08D009E06B
:1025400009F1070121F00702F2E802C1914605E016
:102550001FFA8CFC042A01D10CF0FF0C4FF000088C
:10256000220728D5702806D0009B83F0100353EA79
:102570000A0305D00EE040228DF80420012208E075
:102580005CEA010206D030228DF804208DF80500A7
:1025900002229046009B83F0080353EA0A030AD103
:1025A0005CEA010201D1620705D530228DF80420D2
:1025B0004FF001087F1E582804D034A003900EA8C5
:1025C00002900DE036A0F9E753466046009AFDF709
:1025D000E5FF84460398825C0298401E02900270D8
:1025E0005CEA0100F0D1029806A9081A00F1200A5D
:1025F000600702D524F4803400E00127574502DD4E
:10260000A7EB0A0000E0002000EB0A01009005980B
:102610004144401A0590E00306D45B462146179AD0
:10262000059800F0B3F90544002706E001A85A46D2
:10263000C05D179990476D1C7F1C4745F6DBE00392
:102640000CD55B462146179A059800F09FF9054482
:1026500004E030205A46179990476D1C0099481E97
:1026600000900029F5DC08E0029802995A460078AB
:10267000491C0291179990476D1CBAF10001AAF10B
:10268000010AF1DC65E10000092801003031323334
:10269000343536373839616263646566000000009E
:1026A0003031323334353637383941424344454688
:1026B0000000000000F058F90544761C307800282E
:1026C0007FF4ECAD19B02846BDE8F08F620700D466
:1026D000062709F1070222F0070CFCE80223E14675
:1026E00003F000485FEA080C02D00FF2702C0DE0F6
:1026F0005FEA045C02D50FF2682C07E05FEAC47C55
:1027000002D00FF2602C01E0AFF2700C4FF0FF38F6
:1027100023F00043CDF850C065280CD006DC4528D6
:1027200009D046281DD047283DD13DE0662818D065
:1027300067287ED138E00021112F01DB112000E055
:10274000781CCDE9000106A90EA8FFF7DDFCDDE944
:102750000F010E9A03910021009207F1010A0491E2
:102760004DE04FF000400097CDE9011006A90EA8FA
:10277000FFF7CAFCDDE90F0203920E9B11990022BC
:10278000DDF80CA00093049211B9791C00EB010A4A
:10279000B7EB0A0004D4C0F1FF3007F1010A04903E
:1027A000AAEB0700019044E0012F00DA0127002185
:1027B000112F01DD112000E03846CDE9000106A906
:1027C0000EA8FFF7A1FCDDE90F010E9A039100218D
:1027D00004910092BA4621070CD40399514500DABE
:1027E0008A46BAF1010F05DD009AAAF10101515C98
:1027F000302908D0B84202DA10F1040F06DA0121BC
:10280000CDE9011015E0AAF10101E9E7002805DC96
:10281000049901440491AAEB000102E0411C5145D6
:1028200000DD8A460499401A401C01904FF0004098
:102830000290200704D40198504501DBCDF80480B4
:1028400000208DF84F0002980DF14F07B0F1004FB6
:1028500025D02B200E9002984FF0020800280CDAA9
:10286000404202902D200E9007E00A210298FDF7C9
:102870007FFE3031029007F8011DB8F10001A8F188
:102880000108F2DC02980028EFD1791E0E9808703A
:10289000307800F0200040F0450007F8020D12A843
:1028A000C01B00F107081498007800B1012000EB6C
:1028B0000A01019801EBE07105984144401A401E5D
:1028C0000590E00306D45B462146179A059800F070
:1028D0005DF805441498007818B15A461799904746
:1028E0006D1CE00324D55B462146179A059800F03D
:1028F0004DF805441CE00498002807DBDDE90301DE
:10290000884203DD0098405C179901E01799302058
:102910005A469047049805F10105401C049001981F
:10292000401E019004D12E205A46179990476D1CE5
:10293000BAF10001AAF1010ADDDC05E017F8010B8C
:102940005A46179990476D1CB8F10001A8F101088B
:10295000F4DC5B462146179A0598ABE62D00000093
:102960002B000000200000002DE9F0410446002566
:102970001E461746880404D405E039462020B04797
:102980006D1C641EF9D52846BDE8F0812DE9F041A3
:10299000044600251E469046C80301D5302700E0B6
:1029A0002027880404D505E041463846B0476D1C11
:1029B000641EF9D52846BDE8F0810A68531C0B60F7
:1029C0001070704713B54FF47A73012269460448BA
:1029D000FFF70AF90120FEF783FB00201CBD000071
:1029E000680000202DE9F04DC84A002490B09142C3
:1029F00005DA21F00043934201D805D120B110B08F
:102A0000BDE8F04DFFF750BBB1F5801F1BDA53EA6C
:102A1000000209D0002911DA0120FFF76FFB10B086
:102A2000BDE8F04DFFF745BB0220FFF767FBFFF75E
:102A300033FB10B081F00041BDE8F08D6FF035043C
:102A40003622FDF791FE04EB2152C1F31308B04981
:102A5000A2F2FF33414401F4801282F07F6103EB64
:102A6000225281F04051009241EA08010022A94B14
:102A7000FDF759FC044608F10200A74EC0F313000D
:102A80000D467E44032867D2D6E900232046FDF791
:102A900027FF1ED10098002802BFD6E9000110B020
:102AA000BDE8F08DFDF777FE07460C469B4A9C4B30
:102AB000FDF73FFC06460D469A4A9B4B3846214699
:102AC000FDF737FC10B032462B46BDE8F04DFDF760
:102AD00089BB4FF05532954B20462946FDF729FC1E
:102AE0000022934BFDF722FC06460F4622462B465A
:102AF00010461946FDF71DFC32463B46FDF719FC12
:102B0000064600980F46F0B1FDF745FE80468A461E
:102B1000824A834BFDF70DFC32463B46FDF706FC2F
:102B200022462B46FDF7FFFB05460C467D4A7E4BB1
:102B300040465146FDF7FDFB10B02A462346BDE84E
:102B4000F04DFDF7F0BB0B4610B03246204629464B
:102B5000BDE8F04DFDF7E7BB00224FF08043204673
:102B6000FDF740FB02460B4620462946FDF753FC85
:102B700006460F460098FDF70EFECDE904013246E9
:102B80003B4610463946FDF7D4FB0C9069480C9A39
:102B90004044019009910B461046FDF7CAFB82465E
:102BA000024665488B46C8F151080B4608F5D72800
:102BB00003217844FFF71AFA52465B46FDF7B9FB4A
:102BC0000A905E480D9152465B4604217844FFF717
:102BD0000DFA099B0C9AFDF7ACFB844601980D9BFE
:102BE00040EA080860460A9AFDF7FCFA8346089115
:102BF000B8F1000F4EDD4FF0FF3220462946FDF7B9
:102C0000B3FD22462B46FDF794FB804600988A468A
:102C100060B3DDE90401414A414BFDF78AFB0991AC
:102C200000905A4640465146089BFDF7DBFA324673
:102C30003B46FDF77EFB099B009AFDF7D3FA42461F
:102C40005346FDF773FB22462B46FDF76CFB04460B
:102C50000D46DDE90401334A334BFDF76AFB10B042
:102C600022462B46BDE8F04DFDF75DBB5A46404677
:102C7000089BFDF7B7FA32463B46FDF75AFB424642
:102C80005346FDF753FB10B022462B46BDE8F04DEE
:102C9000FDF74CBB009840B3DDE904011F4A204B0F
:102CA000FDF747FB80468A465A4620462946089B40
:102CB000FDF739FB32463B46FDF73BFB42465346A8
:102CC000FDF731FB22462B46FDF72DFB04460D4652
:102CD000DDE90401134A144BFDF72BFB10B022462B
:102CE0002B46BDE8F04DFDF71EBB0B465A4620466D
:102CF0002946FDF718FB32463B46FDF71AFB10B09C
:102D000022462B46BDE8F04DFDF710BB0000F07FDA
:102D1000645F09000000F03FFA100000763C79354E
:102D2000EF39EA3D0000E0FE422EE63F5555D53F23
:102D30000000E03F86EBF9FF920F0000900F0000CB
:102D40002DE9F041044630480025814205DA21F0A2
:102D50000042824201D805D124B12046BDE8F041AD
:102D6000FFF7A2B9B1F5801F1BDA52EA040008D0C0
:102D700000290FDA0120FFF7C1F9BDE8F041FFF7A4
:102D800098B90220FFF7BAF9FFF786F981F0004100
:102D9000BDE8F0816FF0350536222046FDF7E4FCF2
:102DA000044605EB2150A0F2FF32D00F40F2FF3372
:102DB0001B1A0D4663F31F551044FDF7ECFC064645
:102DC0000F4629462046FFF70DFE104A104BFDF72F
:102DD000B0FA04460D460F4A0F4B30463946FDF710
:102DE000A8FA22462B46FDF7FDF905460C460B4A8C
:102DF0000B4B30463946FDF79CFA2A462346BDE880
:102E0000F041FDF7EFB900000000F07F0EE5261558
:102E10007BCBDB3F362BF111F3FE593D00609F5019
:102E20001344D33F1FB50026FEF76AFAFEF7D8FF1A
:102E30007448816941F020018161816901F02001BC
:102E40000091816941F004018161806900F0040012
:102E50000090FEF789FF6C48FDF7BAFD6A486B49A0
:102E600030304FF4E13500240160C0E901540C27F3
:102E7000C460C0E904478461C461FEF72DFE624866
:102E8000634970300160C0E90154C460C0E904477F
:102E90008461C461FEF720FE02E00A20FEF720F9FB
:102EA00002A8FEF7FBFE0028F7D15A49564D5A4CAE
:102EB000B035CDE902015448FEF7B2F8322152484C
:102EC000FEF716F85048FDF753FF80057ED54E48B3
:102ED000FDF750FF208025F81600761CF6B20A2E6A
:102EE00074D128886988EA880844A9880026114492
:102EF0000844298908440521B0FBF1F080B26080C4
:102F0000FDF7F8FA4549FDF72FF96FF00B01FDF7D2
:102F10005DF9FDF71AFBC4E90201414F02460B4679
:102F200000203946FDF777FA00223E4BFDF7FBF90A
:102F300000223D4BFDF7FDF9DDE90223FDF76BFAB9
:102F4000FFF7FEFE394A3A4BFDF74CF9394A3A4B46
:102F5000FDF761FA00223B03FDF744F900223B46EE
:102F6000C4E90601FDF7DFF902460B4600203349AC
:102F700000F086F8324A334BFDF7DBF94FF066324A
:102F8000314BFDF748FAC4E9040102460B462FA075
:102F9000FEF7E4FFD4E9040180460F46FDF7BCFAD2
:102FA0008146C0B2FDF7ABFA42463B46FDF7BEF99B
:102FB0000022184BFDF7BDF9FDF7AEFAC1B2009142
:102FC00009F0FF022E2329A10F4800E015E0BA30D6
:102FD000FEF7D4FF0C496423BA311022A1F14A0054
:102FE000FEF702FE0120FEF77BF80B49064864233A
:102FF0000322091D7030FEF7F7FD5A20FEF770F826
:1030000059E700000010024038000020003801405D
:10301000004400400088C340000000203333534088
:10302000000014400000F03F00408F405A643BDF36
:103030004F8DA73F6891ED7C3F35D6BF00002440FF
:10304000295C8FC2F508474066663640616C636F45
:10305000686F6C2076616C75653A20252E34662089
:103060006D672F6D5E330D0A0000000074322E7400
:1030700078743D2225303264256325303464220083
:103080002DE9F04D1D460C4698B0174621F0004141
:1030900023F00043002814BF4FF0010C4FF0000C48
:1030A0000CEB440CFE4A0CEB02064FEA620C664540
:1030B0002BD33E0018BF012606EB45061644F94AFD
:1030C000964222D3F84A53EA070C02D0944205D123
:1030D00048B918B000201146BDE8F08D002808BF9F
:1030E0004FF0000C01D04FF0010C0CEB440212F534
:1030F000001F0AD8002F14BF4FF0010C4FF0000C36
:103100000CEB450212F5001F07D918B03A462B46C2
:103110002146BDE8F04DFEF7CABF0022DFF88CA3C0
:10312000002CB8BF534526DADFF884C36345A8BF37
:10313000022220DADFF870C39C451CDCDFF874C380
:103140000CEB235CBCF1140F08DDCCF1340627FA3C
:1031500006FC0CFA06F6BE420DD108E05FB9CCF1D0
:10316000140623FA06FC0CFA06F69E4203D10CF074
:103170000102C2F1020251EA000C19D1002D17DA46
:10318000002C18BF022A01D0012A07D00220FEF726
:10319000B5FF18B0BDE8F04DFEF77EBF0220FEF788
:1031A000ADFFFEF779FF18B081F00041BDE8F08D6A
:1031B000B7F1000C6CD1534525D104F1804212F5D2
:1031C000801201BF00280020B74918B008BFBDE831
:1031D000F08DB548884207DC002DA1BF6046294626
:1031E00018B0BDE8F08D07E0281E05DA80F0004138
:1031F00018B06046BDE8F08DAF497944D1E90001CF
:1032000018B0BDE8F08DDFF8A0C2634525D1002DD0
:103210001FDA19B1514512D1D8B909E0002840F0A0
:10322000EC82A24A214618B062F31E01BDE8F08D7F
:103230000020214618B060F31E01BDE8F08D08DAC9
:1032400018B02346BDE8F04D024600206146FDF768
:10325000E2B818B02146BDE8F08D514518DAB5F155
:10326000804F0DD0A5F1005CBCF1FF5C10D1B4F132
:10327000000C0DDB18B06146BDE8F04D00F0ECBB72
:10328000234618B00246BDE8F04D1946FDF751B887
:10329000060024F0004C3BD1D9B1514533D1002C6C
:1032A00006DD002DA1BF0020514618B0BDE8F08D0D
:1032B000002C01DD002D1BDB002C13DA002D11DBAF
:1032C000012A4FF0000014BF78497C4918B0BDE8CE
:1032D000F08D022A18BF002C0AD0012A08D1002C38
:1032E00006DA0AE0002CB8BF002D11DA012A04D05A
:1032F000002018B00146BDE8F08D18B000204FF056
:103300000041BDE8F08DA1F14050B0F17F601AD0CE
:10331000012000EBE47050EA020421D0624C521EFE
:103320004FF0000B104304BF4FF0000B644C654896
:1033300083427CDD644A654893421FDD884217DB87
:10334000002D25DB37E0002C00DA4AB1022A0CBF41
:1033500001204FF0FF3018B0BDE8F04DFDF71BBA6B
:103360000120FEF7CBFE18B0BDE8F04DFEF7A1BE80
:103370004D4A8A4202DC002D0ADC1CE0814202DA5E
:10338000002D18DA04E0484B994220DD002D12DDB3
:103390000220FEF7B3FEFEF792FE05460E4600221F
:1033A000534658462146FCF7C4FF18B066F31E0189
:1033B0002846BDE8F08D0220FEF7A0FEFEF786FE4F
:1033C0000A46214618B062F31E01BDE8F08D0022C6
:1033D00030466146FCF7A7FF80460E466FF00102BB
:1033E000FDF7C2F94FF05532394BFCF79FFF4246CB
:1033F0003346FCF79EFF0022364BFCF797FF8246D0
:1034000042463346049110461946FCF792FF524655
:10341000049BFCF78EFF8A4600904FF0C0422E4B73
:1034200040463146FCF785FF2C4A2B4B00E027E055
:10343000CDE9060151460098FCF77BFF82460191D9
:10344000274A284B40463146FCF773FF5246019B02
:10345000FCF769FF82460B4602460591DDE906014D
:10346000FCF7C0FEDDE90623002688463046FCF75F
:103470005AFF5246059BFCF759FF024600F07EB901
:103480000020B1F5801F07DA352230466146FDF78E
:103490006BF906466FF0340000EB215024E0000089
:1034A000FFFF1F00FFFF0F000000F03F0000F07F54
:1034B0000000404301FCFFFF820900000000F0FF14
:1034C0000000F0BF0000E0410000F043FFFFEF3FCD
:1034D0005555D53F0000E03F4715F73FFE822B656D
:1034E00044DF5DF80BAE543EA0F2FF300190C1F313
:1034F000130040F07F6141F040510291FE49884243
:10350000D8BF002004DDFD498142C8BF012001DD94
:103510000D9008E000200D900198401C0190029849
:10352000A0F5801002900299F54878440B910D990E
:1035300000EBC100D0E900230F9330460A920B99AB
:10354000FCF7F1FECDE90601DDE90A2130460F9BCB
:10355000FCF748FE02460B460020EA49FCF75BFFF9
:10356000059102460B460090DDE90601FCF7E1FEFD
:103570001490E5488A464FF00008784402990068A4
:1035800012904FF0005040EA61010D980F9B01EB43
:10359000804000F5002109910A9A1298FCF7C3FEB9
:1035A00032460B9BFCF7C2FE42465346FCF7C1FE77
:1035B0000646029140465146099B129AFCF7B9FE15
:1035C000DDE90623FCF7B2FE3246029BFCF7ABFEB8
:1035D000059B009AFCF7ADFE0091149A04905346A7
:1035E00010461946FCF7A5FE06460246C7480B469C
:1035F000029106217844FEF7F9FCCDE90510029B03
:10360000324610461946FCF794FEDDE90532FCF718
:1036100090FE05910646534640461946149AFCF71B
:10362000E1FD009B049AFCF784FE3246059BFCF703
:10363000D9FDCDE905104246534610461946FCF720
:1036400078FE0022B24B02910A90FCF7CBFDDDE937
:103650000532FCF7C7FD0E464246AD4B4046FCF72F
:1036600062FE029B0A9AFCF75EFEDDE90532FCF77A
:103670005DFE424602910A90334610465146FCF7E1
:1036800058FECDE906015346149A02990A98FCF7B0
:1036900050FE8A4602903346424600990498FCF751
:1036A00048FE5346029AFCF79DFD82460B460246B1
:1036B0000591DDE90601FCF795FDDDE90623002013
:1036C00088460646FCF72FFE5246059BFCF72EFE69
:1036D000824609914FF060428E4B30464146FCF7DE
:1036E00028FE049006918C4A8A4B50460999FCF7B3
:1036F00020FE82460291894A894B30464146FCF7BA
:1037000018FE5246029BFCF76DFD864B7B440D9ADA
:1037100003EBC203D3E90023FCF764FD0E9007918D
:103720000198FDF738F80591DDE9061382460E9AF7
:103730000498FCF757FD7C4A7A440D9B02EBC303C7
:10374000D3E9002300930292FCF74CFD5246059BFF
:10375000FCF748FD0026884652463046059BFCF79C
:10376000E2FD009B029AFCF7DEFD069B049AFCF743
:10377000DAFD079B0E9AFCF7D9FD024600200B46A6
:10378000029038462946FCF7D4FD824601912B462B
:1037900038461946029AFCF7C6FD32464346FCF706
:1037A000C8FD5246019BFCF71DFD07468A4632467E
:1037B000434629460298FCF7BCFD05460E463A46AC
:1037C0005346FCF70FFD594A8846914221DBA8EB8E
:1037D000020353EA000210D12A463346FCF7A3FD48
:1037E000CDE90401524A534B38465146FCF7FAFCE6
:1037F000DDE90423FCF7F8FF21D20220FEF77EFC6E
:10380000FEF75DFC0A46214618B062F31E01BDE8D2
:10381000F08D494B28F000429A4210D3474A08EBFA
:10382000020353EA00027FF4C6AD2A463346FCF792
:103830007AFD3A465346FCF7D7FF7FF6BCAD00222F
:10384000019228F000403E493E4A01EB205182425D
:1038500023DA481C4FF4801121FA00F040443A4A20
:10386000C0F30A517A44394BA1F2FF31CB4020EA30
:103870000303C0F3130040F48010C1F11401C840E9
:1038800012680190B8F1000FBCBF40420190284679
:103890003146FCF748FD05460E462A463346384673
:1038A0005146FCF79FFC4FF000084246284B40462B
:1038B0000591FCF73EFDCDE90601264A264B404620
:1038C0000599FCF736FD009102902A4633464046A2
:1038D0000599FCF728FD3A465346FCF727FD1F4A99
:1038E0001F4BFCF726FD009B029AFCF77BFC07466A
:1038F000884602460B4635E08E9803007AB60B00E8
:10390000920500000000F03F02060000F8040000ED
:103910000000084009C7EE3FFD033ADCF5015B14E7
:10392000E02F3EBED0030000940300000000904052
:10393000FE822B654715973C00CC904000346F3FCA
:1039400001FCFFFF0000E03F18030000FFFF0F0035
:10395000432EE63F396CA80C615C20BEEF39FAFEBD
:10396000422EE63FDDE90601FCF73CFCDDE90623DB
:1039700005460E46FCF7D7FC3A464346FCF7D6FC14
:103980000F462A463346009010461946FCF7D1FCF4
:10399000824602462E4888460B4605217844FEF7AB
:1039A00025FB52464346FCF7C4FC2A463346FCF747
:1039B000BDFC80468A463B4628463146009AFCF7C5
:1039C000B8FC3B46009AFCF70DFC069100900022E3
:1039D0004FF0804340465146FCF7A5FC0F460C9043
:1039E0004246534628463146FCF7A3FC3B460C9A18
:1039F000FCF711FD069B009AFCF795FC2A4633461E
:103A0000FCF791FC0022134BFCF790FC0546019853
:103A10000E4601EB00510815002810DC28463146FF
:103A2000019AFCF7A1FEFEF7BDFA042808BFFEF7D5
:103A30004DFB28463146019AFCF796FE05460B469B
:103A400018B02A4658462146BDE8F04DFCF771BC37
:103A5000800100000000F03F2DE9F04106460F46CE
:103A6000FCF7ECFE041E0D4618BF0120284320F091
:103A70000040C0F17F6000F1E040C00F0ED0301C6C
:103A800018BF0120384320F00040C0F17F6000F1F2
:103A9000E040C00F04BF0120FEF730FB204629465E
:103AA000BDE8F081000000000000000001020304F6
:103AB00006070809000000000102030400000000DE
:103AC000000000000000F03F000000000000F83F90
:103AD00000000000000000000000004003B8E23FCA
:103AE000000000000000000006D0CF43EBFD4C3E7C
:103AF000033333333333E33FFFAB6FDBB66DDB3F71
:103B00004D268F515555D53F01411DA96074D13FB8
:103B100065DBC9934A86CD3FEF4E454A287ECA3FB2
:103B20003E5555555555C53F93BDBE166CC166BF34
:103B30002CDE25AF6A56113FF16BD2C541BDBBBE2D
:103B4000D0A4BE726937663E04FA97999999D93F15
:103B5000AF788E1DC571CC3F9FC678D0099AC33F00
:103B6000935555555555E53F599322942449D23FD5
:103B7000DE03CB966446C73F44523EDF12F1C23F9C
:103B80000000000000000000A83B0008000000202A
:103B900038000000DC200008E03B0008380000206E
:103BA000D0040000EC20000800000000FFFFFF0030
:103BB0000000000000000000000000000000000005
:103BC00000000000000000000100000010000000E4
:103BD000000000000024F4000000000000000000CD
:04000005080000ED02
:00000001FF
